{
  "_format": "hh3-artifact-1",
  "contractName": "BloomNFT",
  "sourceName": "contracts/BloomNFT.sol",
  "abi": [
    {
      "inputs": [
        {
          "internalType": "string",
          "name": "name_",
          "type": "string"
        },
        {
          "internalType": "string",
          "name": "symbol_",
          "type": "string"
        }
      ],
      "stateMutability": "nonpayable",
      "type": "constructor"
    },
    {
      "inputs": [],
      "name": "ERC721EnumerableForbiddenBatchMint",
      "type": "error"
    },
    {
      "inputs": [
        {
          "internalType": "address",
          "name": "sender",
          "type": "address"
        },
        {
          "internalType": "uint256",
          "name": "tokenId",
          "type": "uint256"
        },
        {
          "internalType": "address",
          "name": "owner",
          "type": "address"
        }
      ],
      "name": "ERC721IncorrectOwner",
      "type": "error"
    },
    {
      "inputs": [
        {
          "internalType": "address",
          "name": "operator",
          "type": "address"
        },
        {
          "internalType": "uint256",
          "name": "tokenId",
          "type": "uint256"
        }
      ],
      "name": "ERC721InsufficientApproval",
      "type": "error"
    },
    {
      "inputs": [
        {
          "internalType": "address",
          "name": "approver",
          "type": "address"
        }
      ],
      "name": "ERC721InvalidApprover",
      "type": "error"
    },
    {
      "inputs": [
        {
          "internalType": "address",
          "name": "operator",
          "type": "address"
        }
      ],
      "name": "ERC721InvalidOperator",
      "type": "error"
    },
    {
      "inputs": [
        {
          "internalType": "address",
          "name": "owner",
          "type": "address"
        }
      ],
      "name": "ERC721InvalidOwner",
      "type": "error"
    },
    {
      "inputs": [
        {
          "internalType": "address",
          "name": "receiver",
          "type": "address"
        }
      ],
      "name": "ERC721InvalidReceiver",
      "type": "error"
    },
    {
      "inputs": [
        {
          "internalType": "address",
          "name": "sender",
          "type": "address"
        }
      ],
      "name": "ERC721InvalidSender",
      "type": "error"
    },
    {
      "inputs": [
        {
          "internalType": "uint256",
          "name": "tokenId",
          "type": "uint256"
        }
      ],
      "name": "ERC721NonexistentToken",
      "type": "error"
    },
    {
      "inputs": [
        {
          "internalType": "address",
          "name": "owner",
          "type": "address"
        },
        {
          "internalType": "uint256",
          "name": "index",
          "type": "uint256"
        }
      ],
      "name": "ERC721OutOfBoundsIndex",
      "type": "error"
    },
    {
      "inputs": [
        {
          "internalType": "address",
          "name": "owner",
          "type": "address"
        }
      ],
      "name": "OwnableInvalidOwner",
      "type": "error"
    },
    {
      "inputs": [
        {
          "internalType": "address",
          "name": "account",
          "type": "address"
        }
      ],
      "name": "OwnableUnauthorizedAccount",
      "type": "error"
    },
    {
      "anonymous": false,
      "inputs": [
        {
          "indexed": true,
          "internalType": "address",
          "name": "owner",
          "type": "address"
        },
        {
          "indexed": true,
          "internalType": "address",
          "name": "approved",
          "type": "address"
        },
        {
          "indexed": true,
          "internalType": "uint256",
          "name": "tokenId",
          "type": "uint256"
        }
      ],
      "name": "Approval",
      "type": "event"
    },
    {
      "anonymous": false,
      "inputs": [
        {
          "indexed": true,
          "internalType": "address",
          "name": "owner",
          "type": "address"
        },
        {
          "indexed": true,
          "internalType": "address",
          "name": "operator",
          "type": "address"
        },
        {
          "indexed": false,
          "internalType": "bool",
          "name": "approved",
          "type": "bool"
        }
      ],
      "name": "ApprovalForAll",
      "type": "event"
    },
    {
      "anonymous": false,
      "inputs": [
        {
          "indexed": false,
          "internalType": "uint256",
          "name": "_fromTokenId",
          "type": "uint256"
        },
        {
          "indexed": false,
          "internalType": "uint256",
          "name": "_toTokenId",
          "type": "uint256"
        }
      ],
      "name": "BatchMetadataUpdate",
      "type": "event"
    },
    {
      "anonymous": false,
      "inputs": [
        {
          "indexed": false,
          "internalType": "uint256",
          "name": "_tokenId",
          "type": "uint256"
        }
      ],
      "name": "MetadataUpdate",
      "type": "event"
    },
    {
      "anonymous": false,
      "inputs": [
        {
          "indexed": true,
          "internalType": "address",
          "name": "previousOwner",
          "type": "address"
        },
        {
          "indexed": true,
          "internalType": "address",
          "name": "newOwner",
          "type": "address"
        }
      ],
      "name": "OwnershipTransferred",
      "type": "event"
    },
    {
      "anonymous": false,
      "inputs": [
        {
          "indexed": true,
          "internalType": "address",
          "name": "from",
          "type": "address"
        },
        {
          "indexed": true,
          "internalType": "address",
          "name": "to",
          "type": "address"
        },
        {
          "indexed": true,
          "internalType": "uint256",
          "name": "tokenId",
          "type": "uint256"
        }
      ],
      "name": "Transfer",
      "type": "event"
    },
    {
      "inputs": [
        {
          "internalType": "address",
          "name": "to",
          "type": "address"
        },
        {
          "internalType": "uint256",
          "name": "tokenId",
          "type": "uint256"
        }
      ],
      "name": "approve",
      "outputs": [],
      "stateMutability": "nonpayable",
      "type": "function"
    },
    {
      "inputs": [
        {
          "internalType": "address",
          "name": "owner",
          "type": "address"
        }
      ],
      "name": "balanceOf",
      "outputs": [
        {
          "internalType": "uint256",
          "name": "",
          "type": "uint256"
        }
      ],
      "stateMutability": "view",
      "type": "function"
    },
    {
      "inputs": [],
      "name": "basePinataGateway",
      "outputs": [
        {
          "internalType": "string",
          "name": "",
          "type": "string"
        }
      ],
      "stateMutability": "view",
      "type": "function"
    },
    {
      "inputs": [
        {
          "internalType": "uint256",
          "name": "tokenId",
          "type": "uint256"
        }
      ],
      "name": "burn",
      "outputs": [],
      "stateMutability": "nonpayable",
      "type": "function"
    },
    {
      "inputs": [
        {
          "internalType": "uint256",
          "name": "tokenId",
          "type": "uint256"
        }
      ],
      "name": "getApproved",
      "outputs": [
        {
          "internalType": "address",
          "name": "",
          "type": "address"
        }
      ],
      "stateMutability": "view",
      "type": "function"
    },
    {
      "inputs": [
        {
          "internalType": "address",
          "name": "owner",
          "type": "address"
        },
        {
          "internalType": "address",
          "name": "operator",
          "type": "address"
        }
      ],
      "name": "isApprovedForAll",
      "outputs": [
        {
          "internalType": "bool",
          "name": "",
          "type": "bool"
        }
      ],
      "stateMutability": "view",
      "type": "function"
    },
    {
      "inputs": [
        {
          "internalType": "address",
          "name": "to",
          "type": "address"
        },
        {
          "internalType": "string",
          "name": "ipfsHash",
          "type": "string"
        }
      ],
      "name": "mint",
      "outputs": [
        {
          "internalType": "uint256",
          "name": "",
          "type": "uint256"
        }
      ],
      "stateMutability": "nonpayable",
      "type": "function"
    },
    {
      "inputs": [],
      "name": "name",
      "outputs": [
        {
          "internalType": "string",
          "name": "",
          "type": "string"
        }
      ],
      "stateMutability": "view",
      "type": "function"
    },
    {
      "inputs": [],
      "name": "owner",
      "outputs": [
        {
          "internalType": "address",
          "name": "",
          "type": "address"
        }
      ],
      "stateMutability": "view",
      "type": "function"
    },
    {
      "inputs": [
        {
          "internalType": "uint256",
          "name": "tokenId",
          "type": "uint256"
        }
      ],
      "name": "ownerOf",
      "outputs": [
        {
          "internalType": "address",
          "name": "",
          "type": "address"
        }
      ],
      "stateMutability": "view",
      "type": "function"
    },
    {
      "inputs": [],
      "name": "renounceOwnership",
      "outputs": [],
      "stateMutability": "nonpayable",
      "type": "function"
    },
    {
      "inputs": [
        {
          "internalType": "address",
          "name": "from",
          "type": "address"
        },
        {
          "internalType": "address",
          "name": "to",
          "type": "address"
        },
        {
          "internalType": "uint256",
          "name": "tokenId",
          "type": "uint256"
        }
      ],
      "name": "safeTransferFrom",
      "outputs": [],
      "stateMutability": "nonpayable",
      "type": "function"
    },
    {
      "inputs": [
        {
          "internalType": "address",
          "name": "from",
          "type": "address"
        },
        {
          "internalType": "address",
          "name": "to",
          "type": "address"
        },
        {
          "internalType": "uint256",
          "name": "tokenId",
          "type": "uint256"
        },
        {
          "internalType": "bytes",
          "name": "data",
          "type": "bytes"
        }
      ],
      "name": "safeTransferFrom",
      "outputs": [],
      "stateMutability": "nonpayable",
      "type": "function"
    },
    {
      "inputs": [
        {
          "internalType": "address",
          "name": "operator",
          "type": "address"
        },
        {
          "internalType": "bool",
          "name": "approved",
          "type": "bool"
        }
      ],
      "name": "setApprovalForAll",
      "outputs": [],
      "stateMutability": "nonpayable",
      "type": "function"
    },
    {
      "inputs": [
        {
          "internalType": "string",
          "name": "newBase",
          "type": "string"
        }
      ],
      "name": "setBasePinataGateway",
      "outputs": [],
      "stateMutability": "nonpayable",
      "type": "function"
    },
    {
      "inputs": [
        {
          "internalType": "bytes4",
          "name": "interfaceId",
          "type": "bytes4"
        }
      ],
      "name": "supportsInterface",
      "outputs": [
        {
          "internalType": "bool",
          "name": "",
          "type": "bool"
        }
      ],
      "stateMutability": "view",
      "type": "function"
    },
    {
      "inputs": [],
      "name": "symbol",
      "outputs": [
        {
          "internalType": "string",
          "name": "",
          "type": "string"
        }
      ],
      "stateMutability": "view",
      "type": "function"
    },
    {
      "inputs": [
        {
          "internalType": "uint256",
          "name": "index",
          "type": "uint256"
        }
      ],
      "name": "tokenByIndex",
      "outputs": [
        {
          "internalType": "uint256",
          "name": "",
          "type": "uint256"
        }
      ],
      "stateMutability": "view",
      "type": "function"
    },
    {
      "inputs": [
        {
          "internalType": "address",
          "name": "owner",
          "type": "address"
        },
        {
          "internalType": "uint256",
          "name": "index",
          "type": "uint256"
        }
      ],
      "name": "tokenOfOwnerByIndex",
      "outputs": [
        {
          "internalType": "uint256",
          "name": "",
          "type": "uint256"
        }
      ],
      "stateMutability": "view",
      "type": "function"
    },
    {
      "inputs": [
        {
          "internalType": "uint256",
          "name": "tokenId",
          "type": "uint256"
        }
      ],
      "name": "tokenURI",
      "outputs": [
        {
          "internalType": "string",
          "name": "",
          "type": "string"
        }
      ],
      "stateMutability": "view",
      "type": "function"
    },
    {
      "inputs": [],
      "name": "totalSupply",
      "outputs": [
        {
          "internalType": "uint256",
          "name": "",
          "type": "uint256"
        }
      ],
      "stateMutability": "view",
      "type": "function"
    },
    {
      "inputs": [
        {
          "internalType": "address",
          "name": "from",
          "type": "address"
        },
        {
          "internalType": "address",
          "name": "to",
          "type": "address"
        },
        {
          "internalType": "uint256",
          "name": "tokenId",
          "type": "uint256"
        }
      ],
      "name": "transferFrom",
      "outputs": [],
      "stateMutability": "nonpayable",
      "type": "function"
    },
    {
      "inputs": [
        {
          "internalType": "address",
          "name": "newOwner",
          "type": "address"
        }
      ],
      "name": "transferOwnership",
      "outputs": [],
      "stateMutability": "nonpayable",
      "type": "function"
    }
  ],
  "bytecode": "0x60e06040526022608081815290611cd360a039600d9061001f9082610194565b5034801561002b575f5ffd5b50604051611cf5380380611cf583398101604081905261004a916102d7565b3382825f6100588382610194565b5060016100658282610194565b5050506001600160a01b03811661009557604051631e4fbdf760e01b81525f600482015260240160405180910390fd5b61009e816100ab565b50506001600c555061033c565b600b80546001600160a01b038381166001600160a01b0319831681179093556040519116919082907f8be0079c531659141344cd1fd0a4f28419497f9722a3daafe3b4186f6b6457e0905f90a35050565b634e487b7160e01b5f52604160045260245ffd5b600181811c9082168061012457607f821691505b60208210810361014257634e487b7160e01b5f52602260045260245ffd5b50919050565b601f82111561018f57805f5260205f20601f840160051c8101602085101561016d5750805b601f840160051c820191505b8181101561018c575f8155600101610179565b50505b505050565b81516001600160401b038111156101ad576101ad6100fc565b6101c1816101bb8454610110565b84610148565b6020601f8211600181146101f3575f83156101dc5750848201515b5f19600385901b1c1916600184901b17845561018c565b5f84815260208120601f198516915b828110156102225787850151825560209485019460019092019101610202565b508482101561023f57868401515f19600387901b60f8161c191681555b50505050600190811b01905550565b5f82601f83011261025d575f5ffd5b81516001600160401b03811115610276576102766100fc565b604051601f8201601f19908116603f011681016001600160401b03811182821017156102a4576102a46100fc565b6040528181528382016020018510156102bb575f5ffd5b8160208501602083015e5f918101602001919091529392505050565b5f5f604083850312156102e8575f5ffd5b82516001600160401b038111156102fd575f5ffd5b6103098582860161024e565b602085015190935090506001600160401b03811115610326575f5ffd5b6103328582860161024e565b9150509250929050565b61198a806103495f395ff3fe608060405234801561000f575f5ffd5b5060043610610148575f3560e01c806370a08231116100bf578063c87b56dd11610079578063c87b56dd146102a7578063d0def521146102ba578063d269e129146102cd578063e985e9c5146102d5578063f2fde38b146102e8578063fe7ccf8b146102fb575f5ffd5b806370a082311461024d578063715018a6146102605780638da5cb5b1461026857806395d89b4114610279578063a22cb46514610281578063b88d4fde14610294575f5ffd5b806323b872dd1161011057806323b872dd146101db5780632f745c59146101ee57806342842e0e1461020157806342966c68146102145780634f6ccce7146102275780636352211e1461023a575f5ffd5b806301ffc9a71461014c57806306fdde0314610174578063081812fc14610189578063095ea7b3146101b457806318160ddd146101c9575b5f5ffd5b61015f61015a3660046113a9565b61030e565b60405190151581526020015b60405180910390f35b61017c61031e565b60405161016b91906113f2565b61019c610197366004611404565b6103ad565b6040516001600160a01b03909116815260200161016b565b6101c76101c2366004611436565b6103d4565b005b6008545b60405190815260200161016b565b6101c76101e936600461145e565b6103e3565b6101cd6101fc366004611436565b610471565b6101c761020f36600461145e565b6104d4565b6101c7610222366004611404565b6104f3565b6101cd610235366004611404565b6104fe565b61019c610248366004611404565b610553565b6101cd61025b366004611498565b61055d565b6101c76105a2565b600b546001600160a01b031661019c565b61017c6105b5565b6101c761028f3660046114b1565b6105c4565b6101c76102a2366004611575565b6105cf565b61017c6102b5366004611404565b6105e7565b6101cd6102c836600461160a565b610680565b61017c6106ba565b61015f6102e3366004611655565b610746565b6101c76102f6366004611498565b610773565b6101c7610309366004611686565b6107b0565b5f610318826107c4565b92915050565b60605f805461032c906116b8565b80601f0160208091040260200160405190810160405280929190818152602001828054610358906116b8565b80156103a35780601f1061037a576101008083540402835291602001916103a3565b820191905f5260205f20905b81548152906001019060200180831161038657829003601f168201915b5050505050905090565b5f6103b7826107e8565b505f828152600460205260409020546001600160a01b0316610318565b6103df828233610820565b5050565b6001600160a01b03821661041157604051633250574960e11b81525f60048201526024015b60405180910390fd5b5f61041d83833361082d565b9050836001600160a01b0316816001600160a01b03161461046b576040516364283d7b60e01b81526001600160a01b0380861660048301526024820184905282166044820152606401610408565b50505050565b5f61047b8361055d565b82106104ac5760405163295f44f760e21b81526001600160a01b038416600482015260248101839052604401610408565b506001600160a01b03919091165f908152600660209081526040808320938352929052205490565b6104ee83838360405180602001604052805f8152506105cf565b505050565b6103df5f823361082d565b5f61050860085490565b82106105305760405163295f44f760e21b81525f600482015260248101839052604401610408565b60088281548110610543576105436116f0565b905f5260205f2001549050919050565b5f610318826107e8565b5f6001600160a01b038216610587576040516322718ad960e21b81525f6004820152602401610408565b506001600160a01b03165f9081526003602052604090205490565b6105aa610841565b6105b35f61086e565b565b60606001805461032c906116b8565b6103df3383836108bf565b6105da8484846103e3565b61046b338585858561095d565b60605f6105f383610553565b6001600160a01b0316036106495760405162461bcd60e51b815260206004820152601f60248201527f55524920717565727920666f72206e6f6e6578697374656e7420746f6b656e006044820152606401610408565b5f61065383610a85565b9050600d8160405160200161066992919061171b565b604051602081830303815290604052915050919050565b5f610689610841565b600c80549081905f61069a836117ab565b91905055506106a98482610b88565b6106b38184610ba1565b9392505050565b600d80546106c7906116b8565b80601f01602080910402602001604051908101604052809291908181526020018280546106f3906116b8565b801561073e5780601f106107155761010080835404028352916020019161073e565b820191905f5260205f20905b81548152906001019060200180831161072157829003601f168201915b505050505081565b6001600160a01b039182165f90815260056020908152604080832093909416825291909152205460ff1690565b61077b610841565b6001600160a01b0381166107a457604051631e4fbdf760e01b81525f6004820152602401610408565b6107ad8161086e565b50565b6107b8610841565b600d6103df8282611807565b5f6001600160e01b03198216632483248360e11b1480610318575061031882610bf0565b5f818152600260205260408120546001600160a01b03168061031857604051637e27328960e01b815260048101849052602401610408565b6104ee8383836001610c14565b5f610839848484610d18565b949350505050565b600b546001600160a01b031633146105b35760405163118cdaa760e01b8152336004820152602401610408565b600b80546001600160a01b038381166001600160a01b0319831681179093556040519116919082907f8be0079c531659141344cd1fd0a4f28419497f9722a3daafe3b4186f6b6457e0905f90a35050565b6001600160a01b0382166108f157604051630b61174360e31b81526001600160a01b0383166004820152602401610408565b6001600160a01b038381165f81815260056020908152604080832094871680845294825291829020805460ff191686151590811790915591519182527f17307eab39ab6107e8899845ad3d59bd9653f200f220920489ca2b5937696c31910160405180910390a3505050565b6001600160a01b0383163b15610a7e57604051630a85bd0160e11b81526001600160a01b0384169063150b7a029061099f9088908890879087906004016118c2565b6020604051808303815f875af19250505080156109d9575060408051601f3d908101601f191682019092526109d6918101906118fe565b60015b610a40573d808015610a06576040519150601f19603f3d011682016040523d82523d5f602084013e610a0b565b606091505b5080515f03610a3857604051633250574960e11b81526001600160a01b0385166004820152602401610408565b805160208201fd5b6001600160e01b03198116630a85bd0160e11b14610a7c57604051633250574960e11b81526001600160a01b0385166004820152602401610408565b505b5050505050565b6060610a90826107e8565b505f828152600a602052604081208054610aa9906116b8565b80601f0160208091040260200160405190810160405280929190818152602001828054610ad5906116b8565b8015610b205780601f10610af757610100808354040283529160200191610b20565b820191905f5260205f20905b815481529060010190602001808311610b0357829003601f168201915b505050505090505f610b3c60408051602081019091525f815290565b905080515f03610b4d575092915050565b815115610b7f578082604051602001610b67929190611919565b60405160208183030381529060405292505050919050565b61083984610de3565b6103df828260405180602001604052805f815250610e3d565b5f828152600a60205260409020610bb88282611807565b506040518281527ff8e1a15aba9398e019f0b49df1a4fde98ee17ae345cb5f6b5e2c27f5033e8ce79060200160405180910390a15050565b5f6001600160e01b0319821663780e9d6360e01b1480610318575061031882610e54565b8080610c2857506001600160a01b03821615155b15610ce9575f610c37846107e8565b90506001600160a01b03831615801590610c635750826001600160a01b0316816001600160a01b031614155b8015610c765750610c748184610746565b155b15610c9f5760405163a9fbf51f60e01b81526001600160a01b0384166004820152602401610408565b8115610ce75783856001600160a01b0316826001600160a01b03167f8c5be1e5ebec7d5bd14f71427d1e84f3dd0314c0f7b2291e5b200ac8c7c3b92560405160405180910390a45b505b50505f90815260046020526040902080546001600160a01b0319166001600160a01b0392909216919091179055565b5f5f610d25858585610ea3565b90506001600160a01b038116610d8157610d7c84600880545f838152600960205260408120829055600182018355919091527ff3f7a9fe364faab93b216da50a3214154f22a0a2b415b23a84c8169e8b636ee30155565b610da4565b846001600160a01b0316816001600160a01b031614610da457610da48185610f95565b6001600160a01b038516610dc057610dbb84611012565b610839565b846001600160a01b0316816001600160a01b0316146108395761083985856110b9565b6060610dee826107e8565b505f610e0460408051602081019091525f815290565b90505f815111610e225760405180602001604052805f8152506106b3565b80610e2c84611107565b604051602001610669929190611919565b610e478383611197565b6104ee335f85858561095d565b5f6001600160e01b031982166380ac58cd60e01b1480610e8457506001600160e01b03198216635b5e139f60e01b145b8061031857506301ffc9a760e01b6001600160e01b0319831614610318565b5f828152600260205260408120546001600160a01b0390811690831615610ecf57610ecf8184866111f8565b6001600160a01b03811615610f0957610eea5f855f5f610c14565b6001600160a01b0381165f90815260036020526040902080545f190190555b6001600160a01b03851615610f37576001600160a01b0385165f908152600360205260409020805460010190555b5f8481526002602052604080822080546001600160a01b0319166001600160a01b0389811691821790925591518793918516917fddf252ad1be2c89b69c2b068fc378daa952ba7f163c4a11628f55a4df523b3ef91a4949350505050565b5f610f9f8361055d565b5f838152600760209081526040808320546001600160a01b0388168452600690925290912091925090818314610ff4575f83815260208281526040808320548584528184208190558352600790915290208290555b5f938452600760209081526040808620869055938552525081205550565b6008545f906110239060019061192d565b5f838152600960205260408120546008805493945090928490811061104a5761104a6116f0565b905f5260205f20015490508060088381548110611069576110696116f0565b5f9182526020808320909101929092558281526009909152604080822084905585825281205560088054806110a0576110a0611940565b600190038181905f5260205f20015f9055905550505050565b5f60016110c58461055d565b6110cf919061192d565b6001600160a01b039093165f908152600660209081526040808320868452825280832085905593825260079052919091209190915550565b60605f6111138361125c565b60010190505f8167ffffffffffffffff811115611132576111326114ea565b6040519080825280601f01601f19166020018201604052801561115c576020820181803683370190505b5090508181016020015b5f19016f181899199a1a9b1b9c1cb0b131b232b360811b600a86061a8153600a850494508461116657509392505050565b6001600160a01b0382166111c057604051633250574960e11b81525f6004820152602401610408565b5f6111cc83835f61082d565b90506001600160a01b038116156104ee576040516339e3563760e11b81525f6004820152602401610408565b611203838383611333565b6104ee576001600160a01b03831661123157604051637e27328960e01b815260048101829052602401610408565b60405163177e802f60e01b81526001600160a01b038316600482015260248101829052604401610408565b5f8072184f03e93ff9f4daa797ed6e38ed64bf6a1f0160401b831061129a5772184f03e93ff9f4daa797ed6e38ed64bf6a1f0160401b830492506040015b6d04ee2d6d415b85acef810000000083106112c6576d04ee2d6d415b85acef8100000000830492506020015b662386f26fc1000083106112e457662386f26fc10000830492506010015b6305f5e10083106112fc576305f5e100830492506008015b612710831061131057612710830492506004015b60648310611322576064830492506002015b600a83106103185760010192915050565b5f6001600160a01b038316158015906108395750826001600160a01b0316846001600160a01b0316148061136c575061136c8484610746565b806108395750505f908152600460205260409020546001600160a01b03908116911614919050565b6001600160e01b0319811681146107ad575f5ffd5b5f602082840312156113b9575f5ffd5b81356106b381611394565b5f81518084528060208401602086015e5f602082860101526020601f19601f83011685010191505092915050565b602081525f6106b360208301846113c4565b5f60208284031215611414575f5ffd5b5035919050565b80356001600160a01b0381168114611431575f5ffd5b919050565b5f5f60408385031215611447575f5ffd5b6114508361141b565b946020939093013593505050565b5f5f5f60608486031215611470575f5ffd5b6114798461141b565b92506114876020850161141b565b929592945050506040919091013590565b5f602082840312156114a8575f5ffd5b6106b38261141b565b5f5f604083850312156114c2575f5ffd5b6114cb8361141b565b9150602083013580151581146114df575f5ffd5b809150509250929050565b634e487b7160e01b5f52604160045260245ffd5b5f5f67ffffffffffffffff841115611518576115186114ea565b50604051601f19601f85018116603f0116810181811067ffffffffffffffff82111715611547576115476114ea565b60405283815290508082840185101561155e575f5ffd5b838360208301375f60208583010152509392505050565b5f5f5f5f60808587031215611588575f5ffd5b6115918561141b565b935061159f6020860161141b565b925060408501359150606085013567ffffffffffffffff8111156115c1575f5ffd5b8501601f810187136115d1575f5ffd5b6115e0878235602084016114fe565b91505092959194509250565b5f82601f8301126115fb575f5ffd5b6106b3838335602085016114fe565b5f5f6040838503121561161b575f5ffd5b6116248361141b565b9150602083013567ffffffffffffffff81111561163f575f5ffd5b61164b858286016115ec565b9150509250929050565b5f5f60408385031215611666575f5ffd5b61166f8361141b565b915061167d6020840161141b565b90509250929050565b5f60208284031215611696575f5ffd5b813567ffffffffffffffff8111156116ac575f5ffd5b610839848285016115ec565b600181811c908216806116cc57607f821691505b6020821081036116ea57634e487b7160e01b5f52602260045260245ffd5b50919050565b634e487b7160e01b5f52603260045260245ffd5b5f81518060208401855e5f93019283525090919050565b5f5f8454611728816116b8565b60018216801561173f576001811461175457611781565b60ff1983168652811515820286019350611781565b875f5260205f205f5b838110156117795781548882015260019091019060200161175d565b505081860193505b50505061178e8185611704565b95945050505050565b634e487b7160e01b5f52601160045260245ffd5b5f600182016117bc576117bc611797565b5060010190565b601f8211156104ee57805f5260205f20601f840160051c810160208510156117e85750805b601f840160051c820191505b81811015610a7e575f81556001016117f4565b815167ffffffffffffffff811115611821576118216114ea565b6118358161182f84546116b8565b846117c3565b6020601f821160018114611867575f83156118505750848201515b5f19600385901b1c1916600184901b178455610a7e565b5f84815260208120601f198516915b828110156118965787850151825560209485019460019092019101611876565b50848210156118b357868401515f19600387901b60f8161c191681555b50505050600190811b01905550565b6001600160a01b03858116825284166020820152604081018390526080606082018190525f906118f4908301846113c4565b9695505050505050565b5f6020828403121561190e575f5ffd5b81516106b381611394565b5f6108396119278386611704565b84611704565b8181038181111561031857610318611797565b634e487b7160e01b5f52603160045260245ffdfea2646970667358221220dd854ab5ba49d9e266ead515c43decc5abd4758a0c197f913e44b9f43f357f6364736f6c634300081e003368747470733a2f2f676174657761792e70696e6174612e636c6f75642f697066732f",
  "linkReferences": {},
  "deployedLinkReferences": {},
  "immutableReferences": {},
  "inputSourceName": "project/contracts/BloomNFT.sol",
  "buildInfoId": "solc-0_8_30-faf786e9a7c7e72f99792507e1fae3ab482187e3"
}